{
	"contracts/firstcontract.sol": {
		"FirstContract": {
			"abi": [
				{
					"inputs": [],
					"name": "firstFunction",
					"outputs": [],
					"stateMutability": "nonpayable",
					"type": "function"
				},
				{
					"inputs": [],
					"name": "unit1",
					"outputs": [
						{
							"internalType": "uint256",
							"name": "",
							"type": "uint256"
						}
					],
					"stateMutability": "view",
					"type": "function"
				}
			],
			"devdoc": {
				"kind": "dev",
				"methods": {},
				"version": 1
			},
			"evm": {
				"assembly": "    /* \"contracts/firstcontract.sol\":68:783  contract FirstContract {... */\n  mstore(0x40, 0x80)\n  callvalue\n  dup1\n  iszero\n  tag_1\n  jumpi\n  0x00\n  dup1\n  revert\ntag_1:\n  pop\n  dataSize(sub_0)\n  dup1\n  dataOffset(sub_0)\n  0x00\n  codecopy\n  0x00\n  return\nstop\n\nsub_0: assembly {\n        /* \"contracts/firstcontract.sol\":68:783  contract FirstContract {... */\n      mstore(0x40, 0x80)\n      callvalue\n      dup1\n      iszero\n      tag_1\n      jumpi\n      0x00\n      dup1\n      revert\n    tag_1:\n      pop\n      jumpi(tag_2, lt(calldatasize, 0x04))\n      shr(0xe0, calldataload(0x00))\n      dup1\n      0x946d94b1\n      eq\n      tag_3\n      jumpi\n      dup1\n      0xcd71dadb\n      eq\n      tag_4\n      jumpi\n    tag_2:\n      0x00\n      dup1\n      revert\n        /* \"contracts/firstcontract.sol\":98:118  uint256 public unit1 */\n    tag_3:\n      tag_5\n      tag_6\n      jump\t// in\n    tag_5:\n      mload(0x40)\n      tag_7\n      swap2\n      swap1\n      tag_8\n      jump\t// in\n    tag_7:\n      mload(0x40)\n      dup1\n      swap2\n      sub\n      swap1\n      return\n        /* \"contracts/firstcontract.sol\":162:780  function firstFunction() public {... */\n    tag_4:\n      tag_9\n      tag_10\n      jump\t// in\n    tag_9:\n      stop\n        /* \"contracts/firstcontract.sol\":98:118  uint256 public unit1 */\n    tag_6:\n      sload(0x00)\n      dup2\n      jump\t// out\n        /* \"contracts/firstcontract.sol\":162:780  function firstFunction() public {... */\n    tag_10:\n        /* \"contracts/firstcontract.sol\":209:218  uint256 a */\n      0x00\n        /* \"contracts/firstcontract.sol\":221:225  1000 */\n      0x03e8\n        /* \"contracts/firstcontract.sol\":209:225  uint256 a = 1000 */\n      swap1\n      pop\n        /* \"contracts/firstcontract.sol\":240:249  uint256 b */\n      0x00\n        /* \"contracts/firstcontract.sol\":252:256  2000 */\n      0x07d0\n        /* \"contracts/firstcontract.sol\":240:256  uint256 b = 2000 */\n      swap1\n      pop\n        /* \"contracts/firstcontract.sol\":273:283  uint160 ab */\n      0x00\n        /* \"contracts/firstcontract.sol\":298:309  uint256 abc */\n      dup1\n        /* \"contracts/firstcontract.sol\":318:320  ab */\n      dup2\n        /* \"contracts/firstcontract.sol\":310:321  uint256(ab) */\n      0xffffffffffffffffffffffffffffffffffffffff\n      and\n        /* \"contracts/firstcontract.sol\":298:321  uint256 abc=uint256(ab) */\n      swap1\n      pop\n        /* \"contracts/firstcontract.sol\":336:346  bool bool1 */\n      0x00\n        /* \"contracts/firstcontract.sol\":349:353  true */\n      0x01\n        /* \"contracts/firstcontract.sol\":336:353  bool bool1 = true */\n      swap1\n      pop\n        /* \"contracts/firstcontract.sol\":194:780  {... */\n      pop\n      pop\n      pop\n      pop\n      pop\n        /* \"contracts/firstcontract.sol\":162:780  function firstFunction() public {... */\n      jump\t// out\n        /* \"#utility.yul\":7:84   */\n    tag_12:\n        /* \"#utility.yul\":44:51   */\n      0x00\n        /* \"#utility.yul\":73:78   */\n      dup2\n        /* \"#utility.yul\":62:78   */\n      swap1\n      pop\n        /* \"#utility.yul\":7:84   */\n      swap2\n      swap1\n      pop\n      jump\t// out\n        /* \"#utility.yul\":90:208   */\n    tag_13:\n        /* \"#utility.yul\":177:201   */\n      tag_17\n        /* \"#utility.yul\":195:200   */\n      dup2\n        /* \"#utility.yul\":177:201   */\n      tag_12\n      jump\t// in\n    tag_17:\n        /* \"#utility.yul\":172:175   */\n      dup3\n        /* \"#utility.yul\":165:202   */\n      mstore\n        /* \"#utility.yul\":90:208   */\n      pop\n      pop\n      jump\t// out\n        /* \"#utility.yul\":214:436   */\n    tag_8:\n        /* \"#utility.yul\":307:311   */\n      0x00\n        /* \"#utility.yul\":345:347   */\n      0x20\n        /* \"#utility.yul\":334:343   */\n      dup3\n        /* \"#utility.yul\":330:348   */\n      add\n        /* \"#utility.yul\":322:348   */\n      swap1\n      pop\n        /* \"#utility.yul\":358:429   */\n      tag_19\n        /* \"#utility.yul\":426:427   */\n      0x00\n        /* \"#utility.yul\":415:424   */\n      dup4\n        /* \"#utility.yul\":411:428   */\n      add\n        /* \"#utility.yul\":402:408   */\n      dup5\n        /* \"#utility.yul\":358:429   */\n      tag_13\n      jump\t// in\n    tag_19:\n        /* \"#utility.yul\":214:436   */\n      swap3\n      swap2\n      pop\n      pop\n      jump\t// out\n\n    auxdata: 0xa2646970667358221220a443f5aecd363ba4c4e5729dbadc7dbcb0463cb00a48119873eaa8b0b8897a2b64736f6c634300080c0033\n}\n",
				"bytecode": {
					"linkReferences": {},
					"object": "608060405234801561001057600080fd5b5060fc8061001f6000396000f3fe6080604052348015600f57600080fd5b506004361060325760003560e01c8063946d94b1146037578063cd71dadb146051575b600080fd5b603d6059565b6040516048919060ad565b60405180910390f35b6057605f565b005b60005481565b60006103e8905060006107d090506000808173ffffffffffffffffffffffffffffffffffffffff1690506000600190505050505050565b6000819050919050565b60a7816096565b82525050565b600060208201905060c0600083018460a0565b9291505056fea2646970667358221220a443f5aecd363ba4c4e5729dbadc7dbcb0463cb00a48119873eaa8b0b8897a2b64736f6c634300080c0033",
					"opcodes": "PUSH1 0x80 PUSH1 0x40 MSTORE CALLVALUE DUP1 ISZERO PUSH2 0x10 JUMPI PUSH1 0x0 DUP1 REVERT JUMPDEST POP PUSH1 0xFC DUP1 PUSH2 0x1F PUSH1 0x0 CODECOPY PUSH1 0x0 RETURN INVALID PUSH1 0x80 PUSH1 0x40 MSTORE CALLVALUE DUP1 ISZERO PUSH1 0xF JUMPI PUSH1 0x0 DUP1 REVERT JUMPDEST POP PUSH1 0x4 CALLDATASIZE LT PUSH1 0x32 JUMPI PUSH1 0x0 CALLDATALOAD PUSH1 0xE0 SHR DUP1 PUSH4 0x946D94B1 EQ PUSH1 0x37 JUMPI DUP1 PUSH4 0xCD71DADB EQ PUSH1 0x51 JUMPI JUMPDEST PUSH1 0x0 DUP1 REVERT JUMPDEST PUSH1 0x3D PUSH1 0x59 JUMP JUMPDEST PUSH1 0x40 MLOAD PUSH1 0x48 SWAP2 SWAP1 PUSH1 0xAD JUMP JUMPDEST PUSH1 0x40 MLOAD DUP1 SWAP2 SUB SWAP1 RETURN JUMPDEST PUSH1 0x57 PUSH1 0x5F JUMP JUMPDEST STOP JUMPDEST PUSH1 0x0 SLOAD DUP2 JUMP JUMPDEST PUSH1 0x0 PUSH2 0x3E8 SWAP1 POP PUSH1 0x0 PUSH2 0x7D0 SWAP1 POP PUSH1 0x0 DUP1 DUP2 PUSH20 0xFFFFFFFFFFFFFFFFFFFFFFFFFFFFFFFFFFFFFFFF AND SWAP1 POP PUSH1 0x0 PUSH1 0x1 SWAP1 POP POP POP POP POP POP JUMP JUMPDEST PUSH1 0x0 DUP2 SWAP1 POP SWAP2 SWAP1 POP JUMP JUMPDEST PUSH1 0xA7 DUP2 PUSH1 0x96 JUMP JUMPDEST DUP3 MSTORE POP POP JUMP JUMPDEST PUSH1 0x0 PUSH1 0x20 DUP3 ADD SWAP1 POP PUSH1 0xC0 PUSH1 0x0 DUP4 ADD DUP5 PUSH1 0xA0 JUMP JUMPDEST SWAP3 SWAP2 POP POP JUMP INVALID LOG2 PUSH5 0x6970667358 0x22 SLT KECCAK256 LOG4 NUMBER CREATE2 0xAE 0xCD CALLDATASIZE EXTCODESIZE LOG4 0xC4 0xE5 PUSH19 0x9DBADC7DBCB0463CB00A48119873EAA8B0B889 PUSH27 0x2B64736F6C634300080C0033000000000000000000000000000000 "
				},
				"gasEstimates": {
					"creation": {
						"codeDepositCost": "50400",
						"executionCost": "99",
						"totalCost": "50499"
					},
					"external": {
						"firstFunction()": "207",
						"unit1()": "2407"
					}
				},
				"methodIdentifiers": {
					"firstFunction()": "cd71dadb",
					"unit1()": "946d94b1"
				}
			},
			"storageLayout": {
				"storage": [
					{
						"astId": 3,
						"contract": "contracts/firstcontract.sol:FirstContract",
						"label": "unit1",
						"offset": 0,
						"slot": "0",
						"type": "t_uint256"
					},
					{
						"astId": 5,
						"contract": "contracts/firstcontract.sol:FirstContract",
						"label": "int1",
						"offset": 0,
						"slot": "1",
						"type": "t_int256"
					}
				],
				"types": {
					"t_int256": {
						"encoding": "inplace",
						"label": "int256",
						"numberOfBytes": "32"
					},
					"t_uint256": {
						"encoding": "inplace",
						"label": "uint256",
						"numberOfBytes": "32"
					}
				}
			},
			"userdoc": {
				"kind": "user",
				"methods": {},
				"version": 1
			}
		}
	}
}