{
	"contracts/withs1.sol": {
		"Contract": {
			"abi": [
				{
					"inputs": [
						{
							"internalType": "address",
							"name": "_owner",
							"type": "address"
						},
						{
							"internalType": "address",
							"name": "_admin",
							"type": "address"
						}
					],
					"stateMutability": "nonpayable",
					"type": "constructor"
				},
				{
					"inputs": [
						{
							"internalType": "uint256",
							"name": "a",
							"type": "uint256"
						},
						{
							"internalType": "uint256",
							"name": "b",
							"type": "uint256"
						}
					],
					"name": "add2",
					"outputs": [
						{
							"internalType": "uint256",
							"name": "",
							"type": "uint256"
						}
					],
					"stateMutability": "pure",
					"type": "function"
				},
				{
					"inputs": [],
					"name": "adminBalance",
					"outputs": [
						{
							"internalType": "uint256",
							"name": "",
							"type": "uint256"
						}
					],
					"stateMutability": "view",
					"type": "function"
				},
				{
					"inputs": [
						{
							"internalType": "uint256",
							"name": "",
							"type": "uint256"
						}
					],
					"name": "array",
					"outputs": [
						{
							"internalType": "uint256",
							"name": "",
							"type": "uint256"
						}
					],
					"stateMutability": "view",
					"type": "function"
				},
				{
					"inputs": [
						{
							"internalType": "uint256",
							"name": "param",
							"type": "uint256"
						},
						{
							"internalType": "string",
							"name": "str2",
							"type": "string"
						}
					],
					"name": "firstFunstion",
					"outputs": [],
					"stateMutability": "nonpayable",
					"type": "function"
				},
				{
					"inputs": [],
					"name": "getadmin",
					"outputs": [
						{
							"internalType": "address",
							"name": "",
							"type": "address"
						}
					],
					"stateMutability": "view",
					"type": "function"
				},
				{
					"inputs": [],
					"name": "owner",
					"outputs": [
						{
							"internalType": "address",
							"name": "",
							"type": "address"
						}
					],
					"stateMutability": "view",
					"type": "function"
				},
				{
					"inputs": [],
					"name": "ownerBalance",
					"outputs": [
						{
							"internalType": "uint256",
							"name": "",
							"type": "uint256"
						}
					],
					"stateMutability": "view",
					"type": "function"
				},
				{
					"inputs": [],
					"name": "someValue",
					"outputs": [
						{
							"internalType": "uint256",
							"name": "",
							"type": "uint256"
						}
					],
					"stateMutability": "view",
					"type": "function"
				}
			],
			"devdoc": {
				"kind": "dev",
				"methods": {},
				"version": 1
			},
			"evm": {
				"assembly": "    /* \"contracts/withs1.sol\":66:1115  contract Contract {... */\n  mstore(0x40, 0xa0)\n    /* \"contracts/withs1.sol\":495:625  constructor(address _owner, address _admin) {... */\n  callvalue\n  dup1\n  iszero\n  tag_1\n  jumpi\n  0x00\n  dup1\n  revert\ntag_1:\n  pop\n  mload(0x40)\n  sub(codesize, bytecodeSize)\n  dup1\n  bytecodeSize\n  dup4\n  codecopy\n  dup2\n  dup2\n  add\n  0x40\n  mstore\n  dup2\n  add\n  swap1\n  tag_2\n  swap2\n  swap1\n  tag_3\n  jump\t// in\ntag_2:\n    /* \"contracts/withs1.sol\":558:564  _owner */\n  dup2\n    /* \"contracts/withs1.sol\":550:555  owner */\n  0x00\n  dup1\n    /* \"contracts/withs1.sol\":550:564  owner = _owner */\n  0x0100\n  exp\n  dup2\n  sload\n  dup2\n  0xffffffffffffffffffffffffffffffffffffffff\n  mul\n  not\n  and\n  swap1\n  dup4\n  0xffffffffffffffffffffffffffffffffffffffff\n  and\n  mul\n  or\n  swap1\n  sstore\n  pop\n    /* \"contracts/withs1.sol\":583:589  _admin */\n  dup1\n    /* \"contracts/withs1.sol\":575:580  admin */\n  0x01\n  0x00\n    /* \"contracts/withs1.sol\":575:589  admin = _admin */\n  0x0100\n  exp\n  dup2\n  sload\n  dup2\n  0xffffffffffffffffffffffffffffffffffffffff\n  mul\n  not\n  and\n  swap1\n  dup4\n  0xffffffffffffffffffffffffffffffffffffffff\n  and\n  mul\n  or\n  swap1\n  sstore\n  pop\n    /* \"contracts/withs1.sol\":613:617  1258 */\n  0x04ea\n    /* \"contracts/withs1.sol\":600:617  adminBalance=1258 */\n  0x80\n  dup2\n  dup2\n  mstore\n  pop\n  pop\n    /* \"contracts/withs1.sol\":495:625  constructor(address _owner, address _admin) {... */\n  pop\n  pop\n    /* \"contracts/withs1.sol\":66:1115  contract Contract {... */\n  jump(tag_6)\n    /* \"#utility.yul\":88:205   */\ntag_8:\n    /* \"#utility.yul\":197:198   */\n  0x00\n    /* \"#utility.yul\":194:195   */\n  dup1\n    /* \"#utility.yul\":187:199   */\n  revert\n    /* \"#utility.yul\":334:460   */\ntag_10:\n    /* \"#utility.yul\":371:378   */\n  0x00\n    /* \"#utility.yul\":411:453   */\n  0xffffffffffffffffffffffffffffffffffffffff\n    /* \"#utility.yul\":404:409   */\n  dup3\n    /* \"#utility.yul\":400:454   */\n  and\n    /* \"#utility.yul\":389:454   */\n  swap1\n  pop\n    /* \"#utility.yul\":334:460   */\n  swap2\n  swap1\n  pop\n  jump\t// out\n    /* \"#utility.yul\":466:562   */\ntag_11:\n    /* \"#utility.yul\":503:510   */\n  0x00\n    /* \"#utility.yul\":532:556   */\n  tag_20\n    /* \"#utility.yul\":550:555   */\n  dup3\n    /* \"#utility.yul\":532:556   */\n  tag_10\n  jump\t// in\ntag_20:\n    /* \"#utility.yul\":521:556   */\n  swap1\n  pop\n    /* \"#utility.yul\":466:562   */\n  swap2\n  swap1\n  pop\n  jump\t// out\n    /* \"#utility.yul\":568:690   */\ntag_12:\n    /* \"#utility.yul\":641:665   */\n  tag_22\n    /* \"#utility.yul\":659:664   */\n  dup2\n    /* \"#utility.yul\":641:665   */\n  tag_11\n  jump\t// in\ntag_22:\n    /* \"#utility.yul\":634:639   */\n  dup2\n    /* \"#utility.yul\":631:666   */\n  eq\n    /* \"#utility.yul\":621:684   */\n  tag_23\n  jumpi\n    /* \"#utility.yul\":680:681   */\n  0x00\n    /* \"#utility.yul\":677:678   */\n  dup1\n    /* \"#utility.yul\":670:682   */\n  revert\n    /* \"#utility.yul\":621:684   */\ntag_23:\n    /* \"#utility.yul\":568:690   */\n  pop\n  jump\t// out\n    /* \"#utility.yul\":696:839   */\ntag_13:\n    /* \"#utility.yul\":753:758   */\n  0x00\n    /* \"#utility.yul\":784:790   */\n  dup2\n    /* \"#utility.yul\":778:791   */\n  mload\n    /* \"#utility.yul\":769:791   */\n  swap1\n  pop\n    /* \"#utility.yul\":800:833   */\n  tag_25\n    /* \"#utility.yul\":827:832   */\n  dup2\n    /* \"#utility.yul\":800:833   */\n  tag_12\n  jump\t// in\ntag_25:\n    /* \"#utility.yul\":696:839   */\n  swap3\n  swap2\n  pop\n  pop\n  jump\t// out\n    /* \"#utility.yul\":845:1352   */\ntag_3:\n    /* \"#utility.yul\":924:930   */\n  0x00\n    /* \"#utility.yul\":932:938   */\n  dup1\n    /* \"#utility.yul\":981:983   */\n  0x40\n    /* \"#utility.yul\":969:978   */\n  dup4\n    /* \"#utility.yul\":960:967   */\n  dup6\n    /* \"#utility.yul\":956:979   */\n  sub\n    /* \"#utility.yul\":952:984   */\n  slt\n    /* \"#utility.yul\":949:1068   */\n  iszero\n  tag_27\n  jumpi\n    /* \"#utility.yul\":987:1066   */\n  tag_28\n  tag_8\n  jump\t// in\ntag_28:\n    /* \"#utility.yul\":949:1068   */\ntag_27:\n    /* \"#utility.yul\":1107:1108   */\n  0x00\n    /* \"#utility.yul\":1132:1196   */\n  tag_29\n    /* \"#utility.yul\":1188:1195   */\n  dup6\n    /* \"#utility.yul\":1179:1185   */\n  dup3\n    /* \"#utility.yul\":1168:1177   */\n  dup7\n    /* \"#utility.yul\":1164:1186   */\n  add\n    /* \"#utility.yul\":1132:1196   */\n  tag_13\n  jump\t// in\ntag_29:\n    /* \"#utility.yul\":1122:1196   */\n  swap3\n  pop\n    /* \"#utility.yul\":1078:1206   */\n  pop\n    /* \"#utility.yul\":1245:1247   */\n  0x20\n    /* \"#utility.yul\":1271:1335   */\n  tag_30\n    /* \"#utility.yul\":1327:1334   */\n  dup6\n    /* \"#utility.yul\":1318:1324   */\n  dup3\n    /* \"#utility.yul\":1307:1316   */\n  dup7\n    /* \"#utility.yul\":1303:1325   */\n  add\n    /* \"#utility.yul\":1271:1335   */\n  tag_13\n  jump\t// in\ntag_30:\n    /* \"#utility.yul\":1261:1335   */\n  swap2\n  pop\n    /* \"#utility.yul\":1216:1345   */\n  pop\n    /* \"#utility.yul\":845:1352   */\n  swap3\n  pop\n  swap3\n  swap1\n  pop\n  jump\t// out\n    /* \"contracts/withs1.sol\":66:1115  contract Contract {... */\ntag_6:\n  mload(0x80)\n  codecopy(0x00, dataOffset(sub_0), dataSize(sub_0))\n  0x00\n  assignImmutable(\"0x1a192fabce13988b84994d4296e6cdc418d55e2f1d7f942188d4040b94fc57ac\")\n  return(0x00, dataSize(sub_0))\nstop\n\nsub_0: assembly {\n        /* \"contracts/withs1.sol\":66:1115  contract Contract {... */\n      mstore(0x40, 0x80)\n      callvalue\n      dup1\n      iszero\n      tag_1\n      jumpi\n      0x00\n      dup1\n      revert\n    tag_1:\n      pop\n      jumpi(tag_2, lt(calldatasize, 0x04))\n      shr(0xe0, calldataload(0x00))\n      dup1\n      0x9128b257\n      gt\n      tag_11\n      jumpi\n      dup1\n      0x9128b257\n      eq\n      tag_7\n      jumpi\n      dup1\n      0x9858befb\n      eq\n      tag_8\n      jumpi\n      dup1\n      0xa5349125\n      eq\n      tag_9\n      jumpi\n      dup1\n      0xbedcf003\n      eq\n      tag_10\n      jumpi\n      jump(tag_2)\n    tag_11:\n      dup1\n      0x29fcda33\n      eq\n      tag_3\n      jumpi\n      dup1\n      0x38d94193\n      eq\n      tag_4\n      jumpi\n      dup1\n      0x4a627e61\n      eq\n      tag_5\n      jumpi\n      dup1\n      0x8da5cb5b\n      eq\n      tag_6\n      jumpi\n    tag_2:\n      0x00\n      dup1\n      revert\n        /* \"contracts/withs1.sol\":1017:1110  function add2(uint256 a, uint256 b) public pure returns(uint256) {... */\n    tag_3:\n      tag_12\n      0x04\n      dup1\n      calldatasize\n      sub\n      dup2\n      add\n      swap1\n      tag_13\n      swap2\n      swap1\n      tag_14\n      jump\t// in\n    tag_13:\n      tag_15\n      jump\t// in\n    tag_12:\n      mload(0x40)\n      tag_16\n      swap2\n      swap1\n      tag_17\n      jump\t// in\n    tag_16:\n      mload(0x40)\n      dup1\n      swap2\n      sub\n      swap1\n      return\n        /* \"contracts/withs1.sol\":462:486  uint256[10] public array */\n    tag_4:\n      tag_18\n      0x04\n      dup1\n      calldatasize\n      sub\n      dup2\n      add\n      swap1\n      tag_19\n      swap2\n      swap1\n      tag_20\n      jump\t// in\n    tag_19:\n      tag_21\n      jump\t// in\n    tag_18:\n      mload(0x40)\n      tag_22\n      swap2\n      swap1\n      tag_17\n      jump\t// in\n    tag_22:\n      mload(0x40)\n      dup1\n      swap2\n      sub\n      swap1\n      return\n        /* \"contracts/withs1.sol\":431:455  uint256 public someValue */\n    tag_5:\n      tag_23\n      tag_24\n      jump\t// in\n    tag_23:\n      mload(0x40)\n      tag_25\n      swap2\n      swap1\n      tag_17\n      jump\t// in\n    tag_25:\n      mload(0x40)\n      dup1\n      swap2\n      sub\n      swap1\n      return\n        /* \"contracts/withs1.sol\":91:111  address public owner */\n    tag_6:\n      tag_26\n      tag_27\n      jump\t// in\n    tag_26:\n      mload(0x40)\n      tag_28\n      swap2\n      swap1\n      tag_29\n      jump\t// in\n    tag_28:\n      mload(0x40)\n      dup1\n      swap2\n      sub\n      swap1\n      return\n        /* \"contracts/withs1.sol\":929:1009  function getadmin() public view returns(address) {... */\n    tag_7:\n      tag_30\n      tag_31\n      jump\t// in\n    tag_30:\n      mload(0x40)\n      tag_32\n      swap2\n      swap1\n      tag_29\n      jump\t// in\n    tag_32:\n      mload(0x40)\n      dup1\n      swap2\n      sub\n      swap1\n      return\n        /* \"contracts/withs1.sol\":291:328  uint256 public immutable adminBalance */\n    tag_8:\n      tag_33\n      tag_34\n      jump\t// in\n    tag_33:\n      mload(0x40)\n      tag_35\n      swap2\n      swap1\n      tag_17\n      jump\t// in\n    tag_35:\n      mload(0x40)\n      dup1\n      swap2\n      sub\n      swap1\n      return\n        /* \"contracts/withs1.sol\":707:921  function firstFunstion(uint256 param, string memory str2) public {... */\n    tag_9:\n      tag_36\n      0x04\n      dup1\n      calldatasize\n      sub\n      dup2\n      add\n      swap1\n      tag_37\n      swap2\n      swap1\n      tag_38\n      jump\t// in\n    tag_37:\n      tag_39\n      jump\t// in\n    tag_36:\n      stop\n        /* \"contracts/withs1.sol\":190:232  uint256 public constant ownerBalance=10000 */\n    tag_10:\n      tag_40\n      tag_41\n      jump\t// in\n    tag_40:\n      mload(0x40)\n      tag_42\n      swap2\n      swap1\n      tag_17\n      jump\t// in\n    tag_42:\n      mload(0x40)\n      dup1\n      swap2\n      sub\n      swap1\n      return\n        /* \"contracts/withs1.sol\":1017:1110  function add2(uint256 a, uint256 b) public pure returns(uint256) {... */\n    tag_15:\n        /* \"contracts/withs1.sol\":1073:1080  uint256 */\n      0x00\n        /* \"contracts/withs1.sol\":1101:1102  b */\n      dup2\n        /* \"contracts/withs1.sol\":1099:1100  a */\n      dup4\n        /* \"contracts/withs1.sol\":1099:1102  a+b */\n      tag_44\n      swap2\n      swap1\n      tag_45\n      jump\t// in\n    tag_44:\n        /* \"contracts/withs1.sol\":1092:1102  return a+b */\n      swap1\n      pop\n        /* \"contracts/withs1.sol\":1017:1110  function add2(uint256 a, uint256 b) public pure returns(uint256) {... */\n      swap3\n      swap2\n      pop\n      pop\n      jump\t// out\n        /* \"contracts/withs1.sol\":462:486  uint256[10] public array */\n    tag_21:\n      0x03\n      dup2\n      0x0a\n      dup2\n      lt\n      tag_46\n      jumpi\n      0x00\n      dup1\n      revert\n    tag_46:\n      add\n      0x00\n      swap2\n      pop\n      swap1\n      pop\n      sload\n      dup2\n      jump\t// out\n        /* \"contracts/withs1.sol\":431:455  uint256 public someValue */\n    tag_24:\n      sload(0x02)\n      dup2\n      jump\t// out\n        /* \"contracts/withs1.sol\":91:111  address public owner */\n    tag_27:\n      0x00\n      dup1\n      sload\n      swap1\n      0x0100\n      exp\n      swap1\n      div\n      0xffffffffffffffffffffffffffffffffffffffff\n      and\n      dup2\n      jump\t// out\n        /* \"contracts/withs1.sol\":929:1009  function getadmin() public view returns(address) {... */\n    tag_31:\n        /* \"contracts/withs1.sol\":969:976  address */\n      0x00\n        /* \"contracts/withs1.sol\":996:1001  admin */\n      0x01\n      0x00\n      swap1\n      sload\n      swap1\n      0x0100\n      exp\n      swap1\n      div\n      0xffffffffffffffffffffffffffffffffffffffff\n      and\n        /* \"contracts/withs1.sol\":989:1001  return admin */\n      swap1\n      pop\n        /* \"contracts/withs1.sol\":929:1009  function getadmin() public view returns(address) {... */\n      swap1\n      jump\t// out\n        /* \"contracts/withs1.sol\":291:328  uint256 public immutable adminBalance */\n    tag_34:\n      immutable(\"0x1a192fabce13988b84994d4296e6cdc418d55e2f1d7f942188d4040b94fc57ac\")\n      dup2\n      jump\t// out\n        /* \"contracts/withs1.sol\":707:921  function firstFunstion(uint256 param, string memory str2) public {... */\n    tag_39:\n        /* \"contracts/withs1.sol\":783:804  uint256[] memory arr1 */\n      0x00\n        /* \"contracts/withs1.sol\":821:823  10 */\n      0x0a\n        /* \"contracts/withs1.sol\":807:824  new uint256[](10) */\n      0xffffffffffffffff\n      dup2\n      gt\n      iszero\n      tag_50\n      jumpi\n      tag_51\n      tag_52\n      jump\t// in\n    tag_51:\n    tag_50:\n      mload(0x40)\n      swap1\n      dup1\n      dup3\n      mstore\n      dup1\n      0x20\n      mul\n      0x20\n      add\n      dup3\n      add\n      0x40\n      mstore\n      dup1\n      iszero\n      tag_53\n      jumpi\n      dup2\n      0x20\n      add\n      0x20\n      dup3\n      mul\n      dup1\n      calldatasize\n      dup4\n      calldatacopy\n      dup1\n      dup3\n      add\n      swap2\n      pop\n      pop\n      swap1\n      pop\n    tag_53:\n      pop\n        /* \"contracts/withs1.sol\":783:824  uint256[] memory arr1 = new uint256[](10) */\n      swap1\n      pop\n        /* \"contracts/withs1.sol\":835:853  string memory str1 */\n      0x00\n        /* \"contracts/withs1.sol\":835:861  string memory str1=\"adced\" */\n      mload(0x40)\n      dup1\n      0x40\n      add\n      0x40\n      mstore\n      dup1\n      0x05\n      dup2\n      mstore\n      0x20\n      add\n      0x6164636564000000000000000000000000000000000000000000000000000000\n      dup2\n      mstore\n      pop\n      swap1\n      pop\n        /* \"contracts/withs1.sol\":872:881  uint256 a */\n      0x00\n        /* \"contracts/withs1.sol\":882:887  10000 */\n      0x2710\n        /* \"contracts/withs1.sol\":872:887  uint256 a=10000 */\n      swap1\n      pop\n        /* \"contracts/withs1.sol\":908:913  param */\n      dup5\n        /* \"contracts/withs1.sol\":898:907  someValue */\n      0x02\n        /* \"contracts/withs1.sol\":898:913  someValue=param */\n      dup2\n      swap1\n      sstore\n      pop\n        /* \"contracts/withs1.sol\":772:921  {... */\n      pop\n      pop\n      pop\n        /* \"contracts/withs1.sol\":707:921  function firstFunstion(uint256 param, string memory str2) public {... */\n      pop\n      pop\n      jump\t// out\n        /* \"contracts/withs1.sol\":190:232  uint256 public constant ownerBalance=10000 */\n    tag_41:\n        /* \"contracts/withs1.sol\":227:232  10000 */\n      0x2710\n        /* \"contracts/withs1.sol\":190:232  uint256 public constant ownerBalance=10000 */\n      dup2\n      jump\t// out\n        /* \"#utility.yul\":7:82   */\n    tag_54:\n        /* \"#utility.yul\":40:46   */\n      0x00\n        /* \"#utility.yul\":73:75   */\n      0x40\n        /* \"#utility.yul\":67:76   */\n      mload\n        /* \"#utility.yul\":57:76   */\n      swap1\n      pop\n        /* \"#utility.yul\":7:82   */\n      swap1\n      jump\t// out\n        /* \"#utility.yul\":88:205   */\n    tag_55:\n        /* \"#utility.yul\":197:198   */\n      0x00\n        /* \"#utility.yul\":194:195   */\n      dup1\n        /* \"#utility.yul\":187:199   */\n      revert\n        /* \"#utility.yul\":211:328   */\n    tag_56:\n        /* \"#utility.yul\":320:321   */\n      0x00\n        /* \"#utility.yul\":317:318   */\n      dup1\n        /* \"#utility.yul\":310:322   */\n      revert\n        /* \"#utility.yul\":334:411   */\n    tag_57:\n        /* \"#utility.yul\":371:378   */\n      0x00\n        /* \"#utility.yul\":400:405   */\n      dup2\n        /* \"#utility.yul\":389:405   */\n      swap1\n      pop\n        /* \"#utility.yul\":334:411   */\n      swap2\n      swap1\n      pop\n      jump\t// out\n        /* \"#utility.yul\":417:539   */\n    tag_58:\n        /* \"#utility.yul\":490:514   */\n      tag_80\n        /* \"#utility.yul\":508:513   */\n      dup2\n        /* \"#utility.yul\":490:514   */\n      tag_57\n      jump\t// in\n    tag_80:\n        /* \"#utility.yul\":483:488   */\n      dup2\n        /* \"#utility.yul\":480:515   */\n      eq\n        /* \"#utility.yul\":470:533   */\n      tag_81\n      jumpi\n        /* \"#utility.yul\":529:530   */\n      0x00\n        /* \"#utility.yul\":526:527   */\n      dup1\n        /* \"#utility.yul\":519:531   */\n      revert\n        /* \"#utility.yul\":470:533   */\n    tag_81:\n        /* \"#utility.yul\":417:539   */\n      pop\n      jump\t// out\n        /* \"#utility.yul\":545:684   */\n    tag_59:\n        /* \"#utility.yul\":591:596   */\n      0x00\n        /* \"#utility.yul\":629:635   */\n      dup2\n        /* \"#utility.yul\":616:636   */\n      calldataload\n        /* \"#utility.yul\":607:636   */\n      swap1\n      pop\n        /* \"#utility.yul\":645:678   */\n      tag_83\n        /* \"#utility.yul\":672:677   */\n      dup2\n        /* \"#utility.yul\":645:678   */\n      tag_58\n      jump\t// in\n    tag_83:\n        /* \"#utility.yul\":545:684   */\n      swap3\n      swap2\n      pop\n      pop\n      jump\t// out\n        /* \"#utility.yul\":690:1164   */\n    tag_14:\n        /* \"#utility.yul\":758:764   */\n      0x00\n        /* \"#utility.yul\":766:772   */\n      dup1\n        /* \"#utility.yul\":815:817   */\n      0x40\n        /* \"#utility.yul\":803:812   */\n      dup4\n        /* \"#utility.yul\":794:801   */\n      dup6\n        /* \"#utility.yul\":790:813   */\n      sub\n        /* \"#utility.yul\":786:818   */\n      slt\n        /* \"#utility.yul\":783:902   */\n      iszero\n      tag_85\n      jumpi\n        /* \"#utility.yul\":821:900   */\n      tag_86\n      tag_55\n      jump\t// in\n    tag_86:\n        /* \"#utility.yul\":783:902   */\n    tag_85:\n        /* \"#utility.yul\":941:942   */\n      0x00\n        /* \"#utility.yul\":966:1019   */\n      tag_87\n        /* \"#utility.yul\":1011:1018   */\n      dup6\n        /* \"#utility.yul\":1002:1008   */\n      dup3\n        /* \"#utility.yul\":991:1000   */\n      dup7\n        /* \"#utility.yul\":987:1009   */\n      add\n        /* \"#utility.yul\":966:1019   */\n      tag_59\n      jump\t// in\n    tag_87:\n        /* \"#utility.yul\":956:1019   */\n      swap3\n      pop\n        /* \"#utility.yul\":912:1029   */\n      pop\n        /* \"#utility.yul\":1068:1070   */\n      0x20\n        /* \"#utility.yul\":1094:1147   */\n      tag_88\n        /* \"#utility.yul\":1139:1146   */\n      dup6\n        /* \"#utility.yul\":1130:1136   */\n      dup3\n        /* \"#utility.yul\":1119:1128   */\n      dup7\n        /* \"#utility.yul\":1115:1137   */\n      add\n        /* \"#utility.yul\":1094:1147   */\n      tag_59\n      jump\t// in\n    tag_88:\n        /* \"#utility.yul\":1084:1147   */\n      swap2\n      pop\n        /* \"#utility.yul\":1039:1157   */\n      pop\n        /* \"#utility.yul\":690:1164   */\n      swap3\n      pop\n      swap3\n      swap1\n      pop\n      jump\t// out\n        /* \"#utility.yul\":1170:1288   */\n    tag_60:\n        /* \"#utility.yul\":1257:1281   */\n      tag_90\n        /* \"#utility.yul\":1275:1280   */\n      dup2\n        /* \"#utility.yul\":1257:1281   */\n      tag_57\n      jump\t// in\n    tag_90:\n        /* \"#utility.yul\":1252:1255   */\n      dup3\n        /* \"#utility.yul\":1245:1282   */\n      mstore\n        /* \"#utility.yul\":1170:1288   */\n      pop\n      pop\n      jump\t// out\n        /* \"#utility.yul\":1294:1516   */\n    tag_17:\n        /* \"#utility.yul\":1387:1391   */\n      0x00\n        /* \"#utility.yul\":1425:1427   */\n      0x20\n        /* \"#utility.yul\":1414:1423   */\n      dup3\n        /* \"#utility.yul\":1410:1428   */\n      add\n        /* \"#utility.yul\":1402:1428   */\n      swap1\n      pop\n        /* \"#utility.yul\":1438:1509   */\n      tag_92\n        /* \"#utility.yul\":1506:1507   */\n      0x00\n        /* \"#utility.yul\":1495:1504   */\n      dup4\n        /* \"#utility.yul\":1491:1508   */\n      add\n        /* \"#utility.yul\":1482:1488   */\n      dup5\n        /* \"#utility.yul\":1438:1509   */\n      tag_60\n      jump\t// in\n    tag_92:\n        /* \"#utility.yul\":1294:1516   */\n      swap3\n      swap2\n      pop\n      pop\n      jump\t// out\n        /* \"#utility.yul\":1522:1851   */\n    tag_20:\n        /* \"#utility.yul\":1581:1587   */\n      0x00\n        /* \"#utility.yul\":1630:1632   */\n      0x20\n        /* \"#utility.yul\":1618:1627   */\n      dup3\n        /* \"#utility.yul\":1609:1616   */\n      dup5\n        /* \"#utility.yul\":1605:1628   */\n      sub\n        /* \"#utility.yul\":1601:1633   */\n      slt\n        /* \"#utility.yul\":1598:1717   */\n      iszero\n      tag_94\n      jumpi\n        /* \"#utility.yul\":1636:1715   */\n      tag_95\n      tag_55\n      jump\t// in\n    tag_95:\n        /* \"#utility.yul\":1598:1717   */\n    tag_94:\n        /* \"#utility.yul\":1756:1757   */\n      0x00\n        /* \"#utility.yul\":1781:1834   */\n      tag_96\n        /* \"#utility.yul\":1826:1833   */\n      dup5\n        /* \"#utility.yul\":1817:1823   */\n      dup3\n        /* \"#utility.yul\":1806:1815   */\n      dup6\n        /* \"#utility.yul\":1802:1824   */\n      add\n        /* \"#utility.yul\":1781:1834   */\n      tag_59\n      jump\t// in\n    tag_96:\n        /* \"#utility.yul\":1771:1834   */\n      swap2\n      pop\n        /* \"#utility.yul\":1727:1844   */\n      pop\n        /* \"#utility.yul\":1522:1851   */\n      swap3\n      swap2\n      pop\n      pop\n      jump\t// out\n        /* \"#utility.yul\":1857:1983   */\n    tag_61:\n        /* \"#utility.yul\":1894:1901   */\n      0x00\n        /* \"#utility.yul\":1934:1976   */\n      0xffffffffffffffffffffffffffffffffffffffff\n        /* \"#utility.yul\":1927:1932   */\n      dup3\n        /* \"#utility.yul\":1923:1977   */\n      and\n        /* \"#utility.yul\":1912:1977   */\n      swap1\n      pop\n        /* \"#utility.yul\":1857:1983   */\n      swap2\n      swap1\n      pop\n      jump\t// out\n        /* \"#utility.yul\":1989:2085   */\n    tag_62:\n        /* \"#utility.yul\":2026:2033   */\n      0x00\n        /* \"#utility.yul\":2055:2079   */\n      tag_99\n        /* \"#utility.yul\":2073:2078   */\n      dup3\n        /* \"#utility.yul\":2055:2079   */\n      tag_61\n      jump\t// in\n    tag_99:\n        /* \"#utility.yul\":2044:2079   */\n      swap1\n      pop\n        /* \"#utility.yul\":1989:2085   */\n      swap2\n      swap1\n      pop\n      jump\t// out\n        /* \"#utility.yul\":2091:2209   */\n    tag_63:\n        /* \"#utility.yul\":2178:2202   */\n      tag_101\n        /* \"#utility.yul\":2196:2201   */\n      dup2\n        /* \"#utility.yul\":2178:2202   */\n      tag_62\n      jump\t// in\n    tag_101:\n        /* \"#utility.yul\":2173:2176   */\n      dup3\n        /* \"#utility.yul\":2166:2203   */\n      mstore\n        /* \"#utility.yul\":2091:2209   */\n      pop\n      pop\n      jump\t// out\n        /* \"#utility.yul\":2215:2437   */\n    tag_29:\n        /* \"#utility.yul\":2308:2312   */\n      0x00\n        /* \"#utility.yul\":2346:2348   */\n      0x20\n        /* \"#utility.yul\":2335:2344   */\n      dup3\n        /* \"#utility.yul\":2331:2349   */\n      add\n        /* \"#utility.yul\":2323:2349   */\n      swap1\n      pop\n        /* \"#utility.yul\":2359:2430   */\n      tag_103\n        /* \"#utility.yul\":2427:2428   */\n      0x00\n        /* \"#utility.yul\":2416:2425   */\n      dup4\n        /* \"#utility.yul\":2412:2429   */\n      add\n        /* \"#utility.yul\":2403:2409   */\n      dup5\n        /* \"#utility.yul\":2359:2430   */\n      tag_63\n      jump\t// in\n    tag_103:\n        /* \"#utility.yul\":2215:2437   */\n      swap3\n      swap2\n      pop\n      pop\n      jump\t// out\n        /* \"#utility.yul\":2443:2560   */\n    tag_64:\n        /* \"#utility.yul\":2552:2553   */\n      0x00\n        /* \"#utility.yul\":2549:2550   */\n      dup1\n        /* \"#utility.yul\":2542:2554   */\n      revert\n        /* \"#utility.yul\":2566:2683   */\n    tag_65:\n        /* \"#utility.yul\":2675:2676   */\n      0x00\n        /* \"#utility.yul\":2672:2673   */\n      dup1\n        /* \"#utility.yul\":2665:2677   */\n      revert\n        /* \"#utility.yul\":2689:2791   */\n    tag_66:\n        /* \"#utility.yul\":2730:2736   */\n      0x00\n        /* \"#utility.yul\":2781:2783   */\n      0x1f\n        /* \"#utility.yul\":2777:2784   */\n      not\n        /* \"#utility.yul\":2772:2774   */\n      0x1f\n        /* \"#utility.yul\":2765:2770   */\n      dup4\n        /* \"#utility.yul\":2761:2775   */\n      add\n        /* \"#utility.yul\":2757:2785   */\n      and\n        /* \"#utility.yul\":2747:2785   */\n      swap1\n      pop\n        /* \"#utility.yul\":2689:2791   */\n      swap2\n      swap1\n      pop\n      jump\t// out\n        /* \"#utility.yul\":2797:2977   */\n    tag_52:\n        /* \"#utility.yul\":2845:2922   */\n      0x4e487b7100000000000000000000000000000000000000000000000000000000\n        /* \"#utility.yul\":2842:2843   */\n      0x00\n        /* \"#utility.yul\":2835:2923   */\n      mstore\n        /* \"#utility.yul\":2942:2946   */\n      0x41\n        /* \"#utility.yul\":2939:2940   */\n      0x04\n        /* \"#utility.yul\":2932:2947   */\n      mstore\n        /* \"#utility.yul\":2966:2970   */\n      0x24\n        /* \"#utility.yul\":2963:2964   */\n      0x00\n        /* \"#utility.yul\":2956:2971   */\n      revert\n        /* \"#utility.yul\":2983:3264   */\n    tag_67:\n        /* \"#utility.yul\":3066:3093   */\n      tag_109\n        /* \"#utility.yul\":3088:3092   */\n      dup3\n        /* \"#utility.yul\":3066:3093   */\n      tag_66\n      jump\t// in\n    tag_109:\n        /* \"#utility.yul\":3058:3064   */\n      dup2\n        /* \"#utility.yul\":3054:3094   */\n      add\n        /* \"#utility.yul\":3196:3202   */\n      dup2\n        /* \"#utility.yul\":3184:3194   */\n      dup2\n        /* \"#utility.yul\":3181:3203   */\n      lt\n        /* \"#utility.yul\":3160:3178   */\n      0xffffffffffffffff\n        /* \"#utility.yul\":3148:3158   */\n      dup3\n        /* \"#utility.yul\":3145:3179   */\n      gt\n        /* \"#utility.yul\":3142:3204   */\n      or\n        /* \"#utility.yul\":3139:3227   */\n      iszero\n      tag_110\n      jumpi\n        /* \"#utility.yul\":3207:3225   */\n      tag_111\n      tag_52\n      jump\t// in\n    tag_111:\n        /* \"#utility.yul\":3139:3227   */\n    tag_110:\n        /* \"#utility.yul\":3247:3257   */\n      dup1\n        /* \"#utility.yul\":3243:3245   */\n      0x40\n        /* \"#utility.yul\":3236:3258   */\n      mstore\n        /* \"#utility.yul\":3026:3264   */\n      pop\n        /* \"#utility.yul\":2983:3264   */\n      pop\n      pop\n      jump\t// out\n        /* \"#utility.yul\":3270:3399   */\n    tag_68:\n        /* \"#utility.yul\":3304:3310   */\n      0x00\n        /* \"#utility.yul\":3331:3351   */\n      tag_113\n      tag_54\n      jump\t// in\n    tag_113:\n        /* \"#utility.yul\":3321:3351   */\n      swap1\n      pop\n        /* \"#utility.yul\":3360:3393   */\n      tag_114\n        /* \"#utility.yul\":3388:3392   */\n      dup3\n        /* \"#utility.yul\":3380:3386   */\n      dup3\n        /* \"#utility.yul\":3360:3393   */\n      tag_67\n      jump\t// in\n    tag_114:\n        /* \"#utility.yul\":3270:3399   */\n      swap2\n      swap1\n      pop\n      jump\t// out\n        /* \"#utility.yul\":3405:3713   */\n    tag_69:\n        /* \"#utility.yul\":3467:3471   */\n      0x00\n        /* \"#utility.yul\":3557:3575   */\n      0xffffffffffffffff\n        /* \"#utility.yul\":3549:3555   */\n      dup3\n        /* \"#utility.yul\":3546:3576   */\n      gt\n        /* \"#utility.yul\":3543:3599   */\n      iszero\n      tag_116\n      jumpi\n        /* \"#utility.yul\":3579:3597   */\n      tag_117\n      tag_52\n      jump\t// in\n    tag_117:\n        /* \"#utility.yul\":3543:3599   */\n    tag_116:\n        /* \"#utility.yul\":3617:3646   */\n      tag_118\n        /* \"#utility.yul\":3639:3645   */\n      dup3\n        /* \"#utility.yul\":3617:3646   */\n      tag_66\n      jump\t// in\n    tag_118:\n        /* \"#utility.yul\":3609:3646   */\n      swap1\n      pop\n        /* \"#utility.yul\":3701:3705   */\n      0x20\n        /* \"#utility.yul\":3695:3699   */\n      dup2\n        /* \"#utility.yul\":3691:3706   */\n      add\n        /* \"#utility.yul\":3683:3706   */\n      swap1\n      pop\n        /* \"#utility.yul\":3405:3713   */\n      swap2\n      swap1\n      pop\n      jump\t// out\n        /* \"#utility.yul\":3719:3873   */\n    tag_70:\n        /* \"#utility.yul\":3803:3809   */\n      dup3\n        /* \"#utility.yul\":3798:3801   */\n      dup2\n        /* \"#utility.yul\":3793:3796   */\n      dup4\n        /* \"#utility.yul\":3780:3810   */\n      calldatacopy\n        /* \"#utility.yul\":3865:3866   */\n      0x00\n        /* \"#utility.yul\":3856:3862   */\n      dup4\n        /* \"#utility.yul\":3851:3854   */\n      dup4\n        /* \"#utility.yul\":3847:3863   */\n      add\n        /* \"#utility.yul\":3840:3867   */\n      mstore\n        /* \"#utility.yul\":3719:3873   */\n      pop\n      pop\n      pop\n      jump\t// out\n        /* \"#utility.yul\":3879:4291   */\n    tag_71:\n        /* \"#utility.yul\":3957:3962   */\n      0x00\n        /* \"#utility.yul\":3982:4048   */\n      tag_121\n        /* \"#utility.yul\":3998:4047   */\n      tag_122\n        /* \"#utility.yul\":4040:4046   */\n      dup5\n        /* \"#utility.yul\":3998:4047   */\n      tag_69\n      jump\t// in\n    tag_122:\n        /* \"#utility.yul\":3982:4048   */\n      tag_68\n      jump\t// in\n    tag_121:\n        /* \"#utility.yul\":3973:4048   */\n      swap1\n      pop\n        /* \"#utility.yul\":4071:4077   */\n      dup3\n        /* \"#utility.yul\":4064:4069   */\n      dup2\n        /* \"#utility.yul\":4057:4078   */\n      mstore\n        /* \"#utility.yul\":4109:4113   */\n      0x20\n        /* \"#utility.yul\":4102:4107   */\n      dup2\n        /* \"#utility.yul\":4098:4114   */\n      add\n        /* \"#utility.yul\":4147:4150   */\n      dup5\n        /* \"#utility.yul\":4138:4144   */\n      dup5\n        /* \"#utility.yul\":4133:4136   */\n      dup5\n        /* \"#utility.yul\":4129:4145   */\n      add\n        /* \"#utility.yul\":4126:4151   */\n      gt\n        /* \"#utility.yul\":4123:4235   */\n      iszero\n      tag_123\n      jumpi\n        /* \"#utility.yul\":4154:4233   */\n      tag_124\n      tag_65\n      jump\t// in\n    tag_124:\n        /* \"#utility.yul\":4123:4235   */\n    tag_123:\n        /* \"#utility.yul\":4244:4285   */\n      tag_125\n        /* \"#utility.yul\":4278:4284   */\n      dup5\n        /* \"#utility.yul\":4273:4276   */\n      dup3\n        /* \"#utility.yul\":4268:4271   */\n      dup6\n        /* \"#utility.yul\":4244:4285   */\n      tag_70\n      jump\t// in\n    tag_125:\n        /* \"#utility.yul\":3963:4291   */\n      pop\n        /* \"#utility.yul\":3879:4291   */\n      swap4\n      swap3\n      pop\n      pop\n      pop\n      jump\t// out\n        /* \"#utility.yul\":4311:4651   */\n    tag_72:\n        /* \"#utility.yul\":4367:4372   */\n      0x00\n        /* \"#utility.yul\":4416:4419   */\n      dup3\n        /* \"#utility.yul\":4409:4413   */\n      0x1f\n        /* \"#utility.yul\":4401:4407   */\n      dup4\n        /* \"#utility.yul\":4397:4414   */\n      add\n        /* \"#utility.yul\":4393:4420   */\n      slt\n        /* \"#utility.yul\":4383:4505   */\n      tag_127\n      jumpi\n        /* \"#utility.yul\":4424:4503   */\n      tag_128\n      tag_64\n      jump\t// in\n    tag_128:\n        /* \"#utility.yul\":4383:4505   */\n    tag_127:\n        /* \"#utility.yul\":4541:4547   */\n      dup2\n        /* \"#utility.yul\":4528:4548   */\n      calldataload\n        /* \"#utility.yul\":4566:4645   */\n      tag_129\n        /* \"#utility.yul\":4641:4644   */\n      dup5\n        /* \"#utility.yul\":4633:4639   */\n      dup3\n        /* \"#utility.yul\":4626:4630   */\n      0x20\n        /* \"#utility.yul\":4618:4624   */\n      dup7\n        /* \"#utility.yul\":4614:4631   */\n      add\n        /* \"#utility.yul\":4566:4645   */\n      tag_71\n      jump\t// in\n    tag_129:\n        /* \"#utility.yul\":4557:4645   */\n      swap2\n      pop\n        /* \"#utility.yul\":4373:4651   */\n      pop\n        /* \"#utility.yul\":4311:4651   */\n      swap3\n      swap2\n      pop\n      pop\n      jump\t// out\n        /* \"#utility.yul\":4657:5311   */\n    tag_38:\n        /* \"#utility.yul\":4735:4741   */\n      0x00\n        /* \"#utility.yul\":4743:4749   */\n      dup1\n        /* \"#utility.yul\":4792:4794   */\n      0x40\n        /* \"#utility.yul\":4780:4789   */\n      dup4\n        /* \"#utility.yul\":4771:4778   */\n      dup6\n        /* \"#utility.yul\":4767:4790   */\n      sub\n        /* \"#utility.yul\":4763:4795   */\n      slt\n        /* \"#utility.yul\":4760:4879   */\n      iszero\n      tag_131\n      jumpi\n        /* \"#utility.yul\":4798:4877   */\n      tag_132\n      tag_55\n      jump\t// in\n    tag_132:\n        /* \"#utility.yul\":4760:4879   */\n    tag_131:\n        /* \"#utility.yul\":4918:4919   */\n      0x00\n        /* \"#utility.yul\":4943:4996   */\n      tag_133\n        /* \"#utility.yul\":4988:4995   */\n      dup6\n        /* \"#utility.yul\":4979:4985   */\n      dup3\n        /* \"#utility.yul\":4968:4977   */\n      dup7\n        /* \"#utility.yul\":4964:4986   */\n      add\n        /* \"#utility.yul\":4943:4996   */\n      tag_59\n      jump\t// in\n    tag_133:\n        /* \"#utility.yul\":4933:4996   */\n      swap3\n      pop\n        /* \"#utility.yul\":4889:5006   */\n      pop\n        /* \"#utility.yul\":5073:5075   */\n      0x20\n        /* \"#utility.yul\":5062:5071   */\n      dup4\n        /* \"#utility.yul\":5058:5076   */\n      add\n        /* \"#utility.yul\":5045:5077   */\n      calldataload\n        /* \"#utility.yul\":5104:5122   */\n      0xffffffffffffffff\n        /* \"#utility.yul\":5096:5102   */\n      dup2\n        /* \"#utility.yul\":5093:5123   */\n      gt\n        /* \"#utility.yul\":5090:5207   */\n      iszero\n      tag_134\n      jumpi\n        /* \"#utility.yul\":5126:5205   */\n      tag_135\n      tag_56\n      jump\t// in\n    tag_135:\n        /* \"#utility.yul\":5090:5207   */\n    tag_134:\n        /* \"#utility.yul\":5231:5294   */\n      tag_136\n        /* \"#utility.yul\":5286:5293   */\n      dup6\n        /* \"#utility.yul\":5277:5283   */\n      dup3\n        /* \"#utility.yul\":5266:5275   */\n      dup7\n        /* \"#utility.yul\":5262:5284   */\n      add\n        /* \"#utility.yul\":5231:5294   */\n      tag_72\n      jump\t// in\n    tag_136:\n        /* \"#utility.yul\":5221:5294   */\n      swap2\n      pop\n        /* \"#utility.yul\":5016:5304   */\n      pop\n        /* \"#utility.yul\":4657:5311   */\n      swap3\n      pop\n      swap3\n      swap1\n      pop\n      jump\t// out\n        /* \"#utility.yul\":5317:5497   */\n    tag_73:\n        /* \"#utility.yul\":5365:5442   */\n      0x4e487b7100000000000000000000000000000000000000000000000000000000\n        /* \"#utility.yul\":5362:5363   */\n      0x00\n        /* \"#utility.yul\":5355:5443   */\n      mstore\n        /* \"#utility.yul\":5462:5466   */\n      0x11\n        /* \"#utility.yul\":5459:5460   */\n      0x04\n        /* \"#utility.yul\":5452:5467   */\n      mstore\n        /* \"#utility.yul\":5486:5490   */\n      0x24\n        /* \"#utility.yul\":5483:5484   */\n      0x00\n        /* \"#utility.yul\":5476:5491   */\n      revert\n        /* \"#utility.yul\":5503:5808   */\n    tag_45:\n        /* \"#utility.yul\":5543:5546   */\n      0x00\n        /* \"#utility.yul\":5562:5582   */\n      tag_139\n        /* \"#utility.yul\":5580:5581   */\n      dup3\n        /* \"#utility.yul\":5562:5582   */\n      tag_57\n      jump\t// in\n    tag_139:\n        /* \"#utility.yul\":5557:5582   */\n      swap2\n      pop\n        /* \"#utility.yul\":5596:5616   */\n      tag_140\n        /* \"#utility.yul\":5614:5615   */\n      dup4\n        /* \"#utility.yul\":5596:5616   */\n      tag_57\n      jump\t// in\n    tag_140:\n        /* \"#utility.yul\":5591:5616   */\n      swap3\n      pop\n        /* \"#utility.yul\":5750:5751   */\n      dup3\n        /* \"#utility.yul\":5682:5748   */\n      0xffffffffffffffffffffffffffffffffffffffffffffffffffffffffffffffff\n        /* \"#utility.yul\":5678:5752   */\n      sub\n        /* \"#utility.yul\":5675:5676   */\n      dup3\n        /* \"#utility.yul\":5672:5753   */\n      gt\n        /* \"#utility.yul\":5669:5776   */\n      iszero\n      tag_141\n      jumpi\n        /* \"#utility.yul\":5756:5774   */\n      tag_142\n      tag_73\n      jump\t// in\n    tag_142:\n        /* \"#utility.yul\":5669:5776   */\n    tag_141:\n        /* \"#utility.yul\":5800:5801   */\n      dup3\n        /* \"#utility.yul\":5797:5798   */\n      dup3\n        /* \"#utility.yul\":5793:5802   */\n      add\n        /* \"#utility.yul\":5786:5802   */\n      swap1\n      pop\n        /* \"#utility.yul\":5503:5808   */\n      swap3\n      swap2\n      pop\n      pop\n      jump\t// out\n\n    auxdata: 0xa2646970667358221220c04393763796213fc9e6391c51e81cbee989fe05e4848d48337a5ab11ffea28364736f6c634300080c0033\n}\n",
				"bytecode": {
					"linkReferences": {},
					"object": "60a060405234801561001057600080fd5b5060405161080738038061080783398181016040528101906100329190610127565b816000806101000a81548173ffffffffffffffffffffffffffffffffffffffff021916908373ffffffffffffffffffffffffffffffffffffffff16021790555080600160006101000a81548173ffffffffffffffffffffffffffffffffffffffff021916908373ffffffffffffffffffffffffffffffffffffffff1602179055506104ea608081815250505050610167565b600080fd5b600073ffffffffffffffffffffffffffffffffffffffff82169050919050565b60006100f4826100c9565b9050919050565b610104816100e9565b811461010f57600080fd5b50565b600081519050610121816100fb565b92915050565b6000806040838503121561013e5761013d6100c4565b5b600061014c85828601610112565b925050602061015d85828601610112565b9150509250929050565b608051610685610182600039600061022601526106856000f3fe608060405234801561001057600080fd5b50600436106100885760003560e01c80639128b2571161005b5780639128b257146101295780639858befb14610147578063a534912514610165578063bedcf0031461018157610088565b806329fcda331461008d57806338d94193146100bd5780634a627e61146100ed5780638da5cb5b1461010b575b600080fd5b6100a760048036038101906100a29190610335565b61019f565b6040516100b49190610384565b60405180910390f35b6100d760048036038101906100d2919061039f565b6101b5565b6040516100e49190610384565b60405180910390f35b6100f56101d0565b6040516101029190610384565b60405180910390f35b6101136101d6565b604051610120919061040d565b60405180910390f35b6101316101fa565b60405161013e919061040d565b60405180910390f35b61014f610224565b60405161015c9190610384565b60405180910390f35b61017f600480360381019061017a919061056e565b610248565b005b6101896102e5565b6040516101969190610384565b60405180910390f35b600081836101ad91906105f9565b905092915050565b600381600a81106101c557600080fd5b016000915090505481565b60025481565b60008054906101000a900473ffffffffffffffffffffffffffffffffffffffff1681565b6000600160009054906101000a900473ffffffffffffffffffffffffffffffffffffffff16905090565b7f000000000000000000000000000000000000000000000000000000000000000081565b6000600a67ffffffffffffffff81111561026557610264610443565b5b6040519080825280602002602001820160405280156102935781602001602082028036833780820191505090505b50905060006040518060400160405280600581526020017f6164636564000000000000000000000000000000000000000000000000000000815250905060006127109050846002819055505050505050565b61271081565b6000604051905090565b600080fd5b600080fd5b6000819050919050565b610312816102ff565b811461031d57600080fd5b50565b60008135905061032f81610309565b92915050565b6000806040838503121561034c5761034b6102f5565b5b600061035a85828601610320565b925050602061036b85828601610320565b9150509250929050565b61037e816102ff565b82525050565b60006020820190506103996000830184610375565b92915050565b6000602082840312156103b5576103b46102f5565b5b60006103c384828501610320565b91505092915050565b600073ffffffffffffffffffffffffffffffffffffffff82169050919050565b60006103f7826103cc565b9050919050565b610407816103ec565b82525050565b600060208201905061042260008301846103fe565b92915050565b600080fd5b600080fd5b6000601f19601f8301169050919050565b7f4e487b7100000000000000000000000000000000000000000000000000000000600052604160045260246000fd5b61047b82610432565b810181811067ffffffffffffffff8211171561049a57610499610443565b5b80604052505050565b60006104ad6102eb565b90506104b98282610472565b919050565b600067ffffffffffffffff8211156104d9576104d8610443565b5b6104e282610432565b9050602081019050919050565b82818337600083830152505050565b600061051161050c846104be565b6104a3565b90508281526020810184848401111561052d5761052c61042d565b5b6105388482856104ef565b509392505050565b600082601f83011261055557610554610428565b5b81356105658482602086016104fe565b91505092915050565b60008060408385031215610585576105846102f5565b5b600061059385828601610320565b925050602083013567ffffffffffffffff8111156105b4576105b36102fa565b5b6105c085828601610540565b9150509250929050565b7f4e487b7100000000000000000000000000000000000000000000000000000000600052601160045260246000fd5b6000610604826102ff565b915061060f836102ff565b9250827fffffffffffffffffffffffffffffffffffffffffffffffffffffffffffffffff03821115610644576106436105ca565b5b82820190509291505056fea2646970667358221220c04393763796213fc9e6391c51e81cbee989fe05e4848d48337a5ab11ffea28364736f6c634300080c0033",
					"opcodes": "PUSH1 0xA0 PUSH1 0x40 MSTORE CALLVALUE DUP1 ISZERO PUSH2 0x10 JUMPI PUSH1 0x0 DUP1 REVERT JUMPDEST POP PUSH1 0x40 MLOAD PUSH2 0x807 CODESIZE SUB DUP1 PUSH2 0x807 DUP4 CODECOPY DUP2 DUP2 ADD PUSH1 0x40 MSTORE DUP2 ADD SWAP1 PUSH2 0x32 SWAP2 SWAP1 PUSH2 0x127 JUMP JUMPDEST DUP2 PUSH1 0x0 DUP1 PUSH2 0x100 EXP DUP2 SLOAD DUP2 PUSH20 0xFFFFFFFFFFFFFFFFFFFFFFFFFFFFFFFFFFFFFFFF MUL NOT AND SWAP1 DUP4 PUSH20 0xFFFFFFFFFFFFFFFFFFFFFFFFFFFFFFFFFFFFFFFF AND MUL OR SWAP1 SSTORE POP DUP1 PUSH1 0x1 PUSH1 0x0 PUSH2 0x100 EXP DUP2 SLOAD DUP2 PUSH20 0xFFFFFFFFFFFFFFFFFFFFFFFFFFFFFFFFFFFFFFFF MUL NOT AND SWAP1 DUP4 PUSH20 0xFFFFFFFFFFFFFFFFFFFFFFFFFFFFFFFFFFFFFFFF AND MUL OR SWAP1 SSTORE POP PUSH2 0x4EA PUSH1 0x80 DUP2 DUP2 MSTORE POP POP POP POP PUSH2 0x167 JUMP JUMPDEST PUSH1 0x0 DUP1 REVERT JUMPDEST PUSH1 0x0 PUSH20 0xFFFFFFFFFFFFFFFFFFFFFFFFFFFFFFFFFFFFFFFF DUP3 AND SWAP1 POP SWAP2 SWAP1 POP JUMP JUMPDEST PUSH1 0x0 PUSH2 0xF4 DUP3 PUSH2 0xC9 JUMP JUMPDEST SWAP1 POP SWAP2 SWAP1 POP JUMP JUMPDEST PUSH2 0x104 DUP2 PUSH2 0xE9 JUMP JUMPDEST DUP2 EQ PUSH2 0x10F JUMPI PUSH1 0x0 DUP1 REVERT JUMPDEST POP JUMP JUMPDEST PUSH1 0x0 DUP2 MLOAD SWAP1 POP PUSH2 0x121 DUP2 PUSH2 0xFB JUMP JUMPDEST SWAP3 SWAP2 POP POP JUMP JUMPDEST PUSH1 0x0 DUP1 PUSH1 0x40 DUP4 DUP6 SUB SLT ISZERO PUSH2 0x13E JUMPI PUSH2 0x13D PUSH2 0xC4 JUMP JUMPDEST JUMPDEST PUSH1 0x0 PUSH2 0x14C DUP6 DUP3 DUP7 ADD PUSH2 0x112 JUMP JUMPDEST SWAP3 POP POP PUSH1 0x20 PUSH2 0x15D DUP6 DUP3 DUP7 ADD PUSH2 0x112 JUMP JUMPDEST SWAP2 POP POP SWAP3 POP SWAP3 SWAP1 POP JUMP JUMPDEST PUSH1 0x80 MLOAD PUSH2 0x685 PUSH2 0x182 PUSH1 0x0 CODECOPY PUSH1 0x0 PUSH2 0x226 ADD MSTORE PUSH2 0x685 PUSH1 0x0 RETURN INVALID PUSH1 0x80 PUSH1 0x40 MSTORE CALLVALUE DUP1 ISZERO PUSH2 0x10 JUMPI PUSH1 0x0 DUP1 REVERT JUMPDEST POP PUSH1 0x4 CALLDATASIZE LT PUSH2 0x88 JUMPI PUSH1 0x0 CALLDATALOAD PUSH1 0xE0 SHR DUP1 PUSH4 0x9128B257 GT PUSH2 0x5B JUMPI DUP1 PUSH4 0x9128B257 EQ PUSH2 0x129 JUMPI DUP1 PUSH4 0x9858BEFB EQ PUSH2 0x147 JUMPI DUP1 PUSH4 0xA5349125 EQ PUSH2 0x165 JUMPI DUP1 PUSH4 0xBEDCF003 EQ PUSH2 0x181 JUMPI PUSH2 0x88 JUMP JUMPDEST DUP1 PUSH4 0x29FCDA33 EQ PUSH2 0x8D JUMPI DUP1 PUSH4 0x38D94193 EQ PUSH2 0xBD JUMPI DUP1 PUSH4 0x4A627E61 EQ PUSH2 0xED JUMPI DUP1 PUSH4 0x8DA5CB5B EQ PUSH2 0x10B JUMPI JUMPDEST PUSH1 0x0 DUP1 REVERT JUMPDEST PUSH2 0xA7 PUSH1 0x4 DUP1 CALLDATASIZE SUB DUP2 ADD SWAP1 PUSH2 0xA2 SWAP2 SWAP1 PUSH2 0x335 JUMP JUMPDEST PUSH2 0x19F JUMP JUMPDEST PUSH1 0x40 MLOAD PUSH2 0xB4 SWAP2 SWAP1 PUSH2 0x384 JUMP JUMPDEST PUSH1 0x40 MLOAD DUP1 SWAP2 SUB SWAP1 RETURN JUMPDEST PUSH2 0xD7 PUSH1 0x4 DUP1 CALLDATASIZE SUB DUP2 ADD SWAP1 PUSH2 0xD2 SWAP2 SWAP1 PUSH2 0x39F JUMP JUMPDEST PUSH2 0x1B5 JUMP JUMPDEST PUSH1 0x40 MLOAD PUSH2 0xE4 SWAP2 SWAP1 PUSH2 0x384 JUMP JUMPDEST PUSH1 0x40 MLOAD DUP1 SWAP2 SUB SWAP1 RETURN JUMPDEST PUSH2 0xF5 PUSH2 0x1D0 JUMP JUMPDEST PUSH1 0x40 MLOAD PUSH2 0x102 SWAP2 SWAP1 PUSH2 0x384 JUMP JUMPDEST PUSH1 0x40 MLOAD DUP1 SWAP2 SUB SWAP1 RETURN JUMPDEST PUSH2 0x113 PUSH2 0x1D6 JUMP JUMPDEST PUSH1 0x40 MLOAD PUSH2 0x120 SWAP2 SWAP1 PUSH2 0x40D JUMP JUMPDEST PUSH1 0x40 MLOAD DUP1 SWAP2 SUB SWAP1 RETURN JUMPDEST PUSH2 0x131 PUSH2 0x1FA JUMP JUMPDEST PUSH1 0x40 MLOAD PUSH2 0x13E SWAP2 SWAP1 PUSH2 0x40D JUMP JUMPDEST PUSH1 0x40 MLOAD DUP1 SWAP2 SUB SWAP1 RETURN JUMPDEST PUSH2 0x14F PUSH2 0x224 JUMP JUMPDEST PUSH1 0x40 MLOAD PUSH2 0x15C SWAP2 SWAP1 PUSH2 0x384 JUMP JUMPDEST PUSH1 0x40 MLOAD DUP1 SWAP2 SUB SWAP1 RETURN JUMPDEST PUSH2 0x17F PUSH1 0x4 DUP1 CALLDATASIZE SUB DUP2 ADD SWAP1 PUSH2 0x17A SWAP2 SWAP1 PUSH2 0x56E JUMP JUMPDEST PUSH2 0x248 JUMP JUMPDEST STOP JUMPDEST PUSH2 0x189 PUSH2 0x2E5 JUMP JUMPDEST PUSH1 0x40 MLOAD PUSH2 0x196 SWAP2 SWAP1 PUSH2 0x384 JUMP JUMPDEST PUSH1 0x40 MLOAD DUP1 SWAP2 SUB SWAP1 RETURN JUMPDEST PUSH1 0x0 DUP2 DUP4 PUSH2 0x1AD SWAP2 SWAP1 PUSH2 0x5F9 JUMP JUMPDEST SWAP1 POP SWAP3 SWAP2 POP POP JUMP JUMPDEST PUSH1 0x3 DUP2 PUSH1 0xA DUP2 LT PUSH2 0x1C5 JUMPI PUSH1 0x0 DUP1 REVERT JUMPDEST ADD PUSH1 0x0 SWAP2 POP SWAP1 POP SLOAD DUP2 JUMP JUMPDEST PUSH1 0x2 SLOAD DUP2 JUMP JUMPDEST PUSH1 0x0 DUP1 SLOAD SWAP1 PUSH2 0x100 EXP SWAP1 DIV PUSH20 0xFFFFFFFFFFFFFFFFFFFFFFFFFFFFFFFFFFFFFFFF AND DUP2 JUMP JUMPDEST PUSH1 0x0 PUSH1 0x1 PUSH1 0x0 SWAP1 SLOAD SWAP1 PUSH2 0x100 EXP SWAP1 DIV PUSH20 0xFFFFFFFFFFFFFFFFFFFFFFFFFFFFFFFFFFFFFFFF AND SWAP1 POP SWAP1 JUMP JUMPDEST PUSH32 0x0 DUP2 JUMP JUMPDEST PUSH1 0x0 PUSH1 0xA PUSH8 0xFFFFFFFFFFFFFFFF DUP2 GT ISZERO PUSH2 0x265 JUMPI PUSH2 0x264 PUSH2 0x443 JUMP JUMPDEST JUMPDEST PUSH1 0x40 MLOAD SWAP1 DUP1 DUP3 MSTORE DUP1 PUSH1 0x20 MUL PUSH1 0x20 ADD DUP3 ADD PUSH1 0x40 MSTORE DUP1 ISZERO PUSH2 0x293 JUMPI DUP2 PUSH1 0x20 ADD PUSH1 0x20 DUP3 MUL DUP1 CALLDATASIZE DUP4 CALLDATACOPY DUP1 DUP3 ADD SWAP2 POP POP SWAP1 POP JUMPDEST POP SWAP1 POP PUSH1 0x0 PUSH1 0x40 MLOAD DUP1 PUSH1 0x40 ADD PUSH1 0x40 MSTORE DUP1 PUSH1 0x5 DUP2 MSTORE PUSH1 0x20 ADD PUSH32 0x6164636564000000000000000000000000000000000000000000000000000000 DUP2 MSTORE POP SWAP1 POP PUSH1 0x0 PUSH2 0x2710 SWAP1 POP DUP5 PUSH1 0x2 DUP2 SWAP1 SSTORE POP POP POP POP POP POP JUMP JUMPDEST PUSH2 0x2710 DUP2 JUMP JUMPDEST PUSH1 0x0 PUSH1 0x40 MLOAD SWAP1 POP SWAP1 JUMP JUMPDEST PUSH1 0x0 DUP1 REVERT JUMPDEST PUSH1 0x0 DUP1 REVERT JUMPDEST PUSH1 0x0 DUP2 SWAP1 POP SWAP2 SWAP1 POP JUMP JUMPDEST PUSH2 0x312 DUP2 PUSH2 0x2FF JUMP JUMPDEST DUP2 EQ PUSH2 0x31D JUMPI PUSH1 0x0 DUP1 REVERT JUMPDEST POP JUMP JUMPDEST PUSH1 0x0 DUP2 CALLDATALOAD SWAP1 POP PUSH2 0x32F DUP2 PUSH2 0x309 JUMP JUMPDEST SWAP3 SWAP2 POP POP JUMP JUMPDEST PUSH1 0x0 DUP1 PUSH1 0x40 DUP4 DUP6 SUB SLT ISZERO PUSH2 0x34C JUMPI PUSH2 0x34B PUSH2 0x2F5 JUMP JUMPDEST JUMPDEST PUSH1 0x0 PUSH2 0x35A DUP6 DUP3 DUP7 ADD PUSH2 0x320 JUMP JUMPDEST SWAP3 POP POP PUSH1 0x20 PUSH2 0x36B DUP6 DUP3 DUP7 ADD PUSH2 0x320 JUMP JUMPDEST SWAP2 POP POP SWAP3 POP SWAP3 SWAP1 POP JUMP JUMPDEST PUSH2 0x37E DUP2 PUSH2 0x2FF JUMP JUMPDEST DUP3 MSTORE POP POP JUMP JUMPDEST PUSH1 0x0 PUSH1 0x20 DUP3 ADD SWAP1 POP PUSH2 0x399 PUSH1 0x0 DUP4 ADD DUP5 PUSH2 0x375 JUMP JUMPDEST SWAP3 SWAP2 POP POP JUMP JUMPDEST PUSH1 0x0 PUSH1 0x20 DUP3 DUP5 SUB SLT ISZERO PUSH2 0x3B5 JUMPI PUSH2 0x3B4 PUSH2 0x2F5 JUMP JUMPDEST JUMPDEST PUSH1 0x0 PUSH2 0x3C3 DUP5 DUP3 DUP6 ADD PUSH2 0x320 JUMP JUMPDEST SWAP2 POP POP SWAP3 SWAP2 POP POP JUMP JUMPDEST PUSH1 0x0 PUSH20 0xFFFFFFFFFFFFFFFFFFFFFFFFFFFFFFFFFFFFFFFF DUP3 AND SWAP1 POP SWAP2 SWAP1 POP JUMP JUMPDEST PUSH1 0x0 PUSH2 0x3F7 DUP3 PUSH2 0x3CC JUMP JUMPDEST SWAP1 POP SWAP2 SWAP1 POP JUMP JUMPDEST PUSH2 0x407 DUP2 PUSH2 0x3EC JUMP JUMPDEST DUP3 MSTORE POP POP JUMP JUMPDEST PUSH1 0x0 PUSH1 0x20 DUP3 ADD SWAP1 POP PUSH2 0x422 PUSH1 0x0 DUP4 ADD DUP5 PUSH2 0x3FE JUMP JUMPDEST SWAP3 SWAP2 POP POP JUMP JUMPDEST PUSH1 0x0 DUP1 REVERT JUMPDEST PUSH1 0x0 DUP1 REVERT JUMPDEST PUSH1 0x0 PUSH1 0x1F NOT PUSH1 0x1F DUP4 ADD AND SWAP1 POP SWAP2 SWAP1 POP JUMP JUMPDEST PUSH32 0x4E487B7100000000000000000000000000000000000000000000000000000000 PUSH1 0x0 MSTORE PUSH1 0x41 PUSH1 0x4 MSTORE PUSH1 0x24 PUSH1 0x0 REVERT JUMPDEST PUSH2 0x47B DUP3 PUSH2 0x432 JUMP JUMPDEST DUP2 ADD DUP2 DUP2 LT PUSH8 0xFFFFFFFFFFFFFFFF DUP3 GT OR ISZERO PUSH2 0x49A JUMPI PUSH2 0x499 PUSH2 0x443 JUMP JUMPDEST JUMPDEST DUP1 PUSH1 0x40 MSTORE POP POP POP JUMP JUMPDEST PUSH1 0x0 PUSH2 0x4AD PUSH2 0x2EB JUMP JUMPDEST SWAP1 POP PUSH2 0x4B9 DUP3 DUP3 PUSH2 0x472 JUMP JUMPDEST SWAP2 SWAP1 POP JUMP JUMPDEST PUSH1 0x0 PUSH8 0xFFFFFFFFFFFFFFFF DUP3 GT ISZERO PUSH2 0x4D9 JUMPI PUSH2 0x4D8 PUSH2 0x443 JUMP JUMPDEST JUMPDEST PUSH2 0x4E2 DUP3 PUSH2 0x432 JUMP JUMPDEST SWAP1 POP PUSH1 0x20 DUP2 ADD SWAP1 POP SWAP2 SWAP1 POP JUMP JUMPDEST DUP3 DUP2 DUP4 CALLDATACOPY PUSH1 0x0 DUP4 DUP4 ADD MSTORE POP POP POP JUMP JUMPDEST PUSH1 0x0 PUSH2 0x511 PUSH2 0x50C DUP5 PUSH2 0x4BE JUMP JUMPDEST PUSH2 0x4A3 JUMP JUMPDEST SWAP1 POP DUP3 DUP2 MSTORE PUSH1 0x20 DUP2 ADD DUP5 DUP5 DUP5 ADD GT ISZERO PUSH2 0x52D JUMPI PUSH2 0x52C PUSH2 0x42D JUMP JUMPDEST JUMPDEST PUSH2 0x538 DUP5 DUP3 DUP6 PUSH2 0x4EF JUMP JUMPDEST POP SWAP4 SWAP3 POP POP POP JUMP JUMPDEST PUSH1 0x0 DUP3 PUSH1 0x1F DUP4 ADD SLT PUSH2 0x555 JUMPI PUSH2 0x554 PUSH2 0x428 JUMP JUMPDEST JUMPDEST DUP2 CALLDATALOAD PUSH2 0x565 DUP5 DUP3 PUSH1 0x20 DUP7 ADD PUSH2 0x4FE JUMP JUMPDEST SWAP2 POP POP SWAP3 SWAP2 POP POP JUMP JUMPDEST PUSH1 0x0 DUP1 PUSH1 0x40 DUP4 DUP6 SUB SLT ISZERO PUSH2 0x585 JUMPI PUSH2 0x584 PUSH2 0x2F5 JUMP JUMPDEST JUMPDEST PUSH1 0x0 PUSH2 0x593 DUP6 DUP3 DUP7 ADD PUSH2 0x320 JUMP JUMPDEST SWAP3 POP POP PUSH1 0x20 DUP4 ADD CALLDATALOAD PUSH8 0xFFFFFFFFFFFFFFFF DUP2 GT ISZERO PUSH2 0x5B4 JUMPI PUSH2 0x5B3 PUSH2 0x2FA JUMP JUMPDEST JUMPDEST PUSH2 0x5C0 DUP6 DUP3 DUP7 ADD PUSH2 0x540 JUMP JUMPDEST SWAP2 POP POP SWAP3 POP SWAP3 SWAP1 POP JUMP JUMPDEST PUSH32 0x4E487B7100000000000000000000000000000000000000000000000000000000 PUSH1 0x0 MSTORE PUSH1 0x11 PUSH1 0x4 MSTORE PUSH1 0x24 PUSH1 0x0 REVERT JUMPDEST PUSH1 0x0 PUSH2 0x604 DUP3 PUSH2 0x2FF JUMP JUMPDEST SWAP2 POP PUSH2 0x60F DUP4 PUSH2 0x2FF JUMP JUMPDEST SWAP3 POP DUP3 PUSH32 0xFFFFFFFFFFFFFFFFFFFFFFFFFFFFFFFFFFFFFFFFFFFFFFFFFFFFFFFFFFFFFFFF SUB DUP3 GT ISZERO PUSH2 0x644 JUMPI PUSH2 0x643 PUSH2 0x5CA JUMP JUMPDEST JUMPDEST DUP3 DUP3 ADD SWAP1 POP SWAP3 SWAP2 POP POP JUMP INVALID LOG2 PUSH5 0x6970667358 0x22 SLT KECCAK256 0xC0 NUMBER SWAP4 PUSH23 0x3796213FC9E6391C51E81CBEE989FE05E4848D48337A5A 0xB1 0x1F INVALID LOG2 DUP4 PUSH5 0x736F6C6343 STOP ADDMOD 0xC STOP CALLER "
				},
				"gasEstimates": {
					"creation": {
						"codeDepositCost": "333800",
						"executionCost": "infinite",
						"totalCost": "infinite"
					},
					"external": {
						"add2(uint256,uint256)": "infinite",
						"adminBalance()": "infinite",
						"array(uint256)": "infinite",
						"firstFunstion(uint256,string)": "infinite",
						"getadmin()": "2522",
						"owner()": "2578",
						"ownerBalance()": "395",
						"someValue()": "2474"
					}
				},
				"methodIdentifiers": {
					"add2(uint256,uint256)": "29fcda33",
					"adminBalance()": "9858befb",
					"array(uint256)": "38d94193",
					"firstFunstion(uint256,string)": "a5349125",
					"getadmin()": "9128b257",
					"owner()": "8da5cb5b",
					"ownerBalance()": "bedcf003",
					"someValue()": "4a627e61"
				}
			},
			"storageLayout": {
				"storage": [
					{
						"astId": 3,
						"contract": "contracts/withs1.sol:Contract",
						"label": "owner",
						"offset": 0,
						"slot": "0",
						"type": "t_address"
					},
					{
						"astId": 5,
						"contract": "contracts/withs1.sol:Contract",
						"label": "admin",
						"offset": 0,
						"slot": "1",
						"type": "t_address"
					},
					{
						"astId": 12,
						"contract": "contracts/withs1.sol:Contract",
						"label": "someValue",
						"offset": 0,
						"slot": "2",
						"type": "t_uint256"
					},
					{
						"astId": 16,
						"contract": "contracts/withs1.sol:Contract",
						"label": "array",
						"offset": 0,
						"slot": "3",
						"type": "t_array(t_uint256)10_storage"
					}
				],
				"types": {
					"t_address": {
						"encoding": "inplace",
						"label": "address",
						"numberOfBytes": "20"
					},
					"t_array(t_uint256)10_storage": {
						"base": "t_uint256",
						"encoding": "inplace",
						"label": "uint256[10]",
						"numberOfBytes": "320"
					},
					"t_uint256": {
						"encoding": "inplace",
						"label": "uint256",
						"numberOfBytes": "32"
					}
				}
			},
			"userdoc": {
				"kind": "user",
				"methods": {},
				"version": 1
			}
		}
	}
}